:020000040800F2
:10000000300C00200101000815310008192C0008EF
:1000100079300008690D0008D53A0008000000009A
:100020000000000000000000000000006533000830
:10003000290E00080000000063330008CD330008DB
:100040001B0100081B0100081B0100081B01000820
:100050001B0100081B0100081B0100081B01000810
:100060001B0100081B0100081B0100081B01000800
:100070001B0100081B0100081B0100081B010008F0
:100080006D0D0008790D00081B0100081B01000818
:100090001B0100081B0100081B0100081B010008D0
:1000A0001B0100081B0100081B0100083134000877
:1000B0001B0100083D340008493400081B010008FA
:1000C0001B0100081B0100081B0100081B010008A0
:1000D0001B010008BD3A00081B010008C93A0008CE
:1000E0001B0100081B0100081B010008DFF80CD0F1
:1000F00000F026FC00480047D5440008300C0020E2
:100100000648804706480047FEE7FEE7FEE7FEE7B1
:10011000FEE7FEE7FEE7FEE7FEE7FEE72F34000816
:10012000ED000008202A04DB203A21FA02F0002129
:10013000704721FA02F3D040C2F1200291400843F7
:100140001946704740EA01039B0703D009E008C93C
:10015000121F08C0042AFAD203E011F8013B00F88C
:10016000013B521EF9D27047D2B201E000F8012BD8
:10017000491EFBD270470022F6E710B513460A4627
:1001800004461946FFF7F0FF204610BDF0B480EAA0
:100190000102D40F4200B2EB410F02D202460846E0
:1001A00011464A0042D0C30DDDB2C1F3C752AD1AA9
:1001B000202D35DAC1F3160141F4000204B1524298
:1001C000C5F1200602FA06F12A411044B3EBD05FD4
:1001D00023D0C4B1012DA0EBC35009DCF0BC4FF01B
:1001E000004202EAC352DBB200F5000000F0D3B9CE
:1001F000400000F1807000EBC350A0F1807040EA35
:10020000D170490009E0490841EAC071A0EBC35030
:1002100000F50000400800EBC350F0BC00F0B2B99C
:100220006142012202EB4101001BF6E7F0BC70477E
:1002300081F00041AAE780F00040A7E780EA0102D0
:1002400010B502F00043400022D04A001FD0010E3A
:1002500001EB1261C0F35600C2F3560240F40000F5
:1002600042F40002A0FB022000047F39140400D0F5
:10027000401C50EA124001D44000491EC2B20C0694
:1002800004EBD010401C4008802A02D003E000207C
:1002900010BD20F00100002900DA0020184310BD35
:1002A000420005D0C0F3C7525242914201DC002007
:1002B000704700EBC15070472DE9F04D81EA03040F
:1002C00004F0004B21F0004514464FF0000A23F0E3
:1002D000004150EA050220D054EA01021DD0C5F3C6
:1002E0000A570246C5F31303C1F31300C1F30A56BC
:1002F00040F4801543F48013A7EB0608101BD64684
:1003000008F2FD3873EB050002D308F1010801E0A3
:1003100092185B41B8F1000F03DA00200146BDE8F6
:10032000F08D00204FF48011064684460EE0171B26
:1003300073EB050705D3121B63EB050306434CEA79
:10034000010C49084FEA300092185B4150EA01075E
:10035000EDD152EA030012D082EA040083EA0501DB
:10036000084305D0101BAB4106D20122002306E052
:1003700000224FF0004302E06FF0010253101AEB2D
:1003800006004CEB085110EB0A0041EB0B01BDE8F5
:10039000F04D00F02EB996230022114600F0FBB874
:1003A00000F0004220F00040C10DC0F3160040F400
:1003B00000007F2901DA00207047962903DCC1F193
:1003C0009601C84001E096398840002AF4D04042A6
:1003D000704700F0004230F000400AD0C10D01F536
:1003E0006071C0F3160042EA0151C2084007114390
:1003F000704700200146704701F0004330B421F0FF
:10040000004150EA010206D00A0DA2F56072C1F364
:100410001301002A02DC30BC00207047440F44EA7C
:10042000C104C100E01830BC00EBC25000F0AAB813
:10043000002801DBC0F10040002901DBC1F10041CF
:1004400081427047002801DBC0F10040002901DB38
:10045000C1F100418842704730B50B46014600208B
:100460002022012409E021FA02F59D4205D303FA76
:1004700002F5491B04FA02F52844151EA2F10102F7
:10048000F1DC30BD2DE9F05F0546002092469B4629
:1004900088460646814640241BE02846414647469A
:1004A0002246FFF73FFE53465A46C01A914110D3E9
:1004B00011461846224600F055FA2D1A67EB01083E
:1004C0004F4622460120002100F04CFA17EB0009AC
:1004D0004E41201EA4F10104DFDC484631462A4685
:1004E0004346BDE8F09F00000FB4002300B589B07B
:1004F0000CA900910B996FF00042CB601E4B069344
:100500001E4B07930423CDE901321D4A089202468F
:100510006B46002000F0CCFA09B05DF814FB70B512
:1005200086B006464FF0FF300091CDE90101002072
:1005300015460C4604903246694604A8FFF7D4FFDE
:1005400003460498211825B108B10A4600E0224666
:100550002A6000280DD0002B02DD0098884208D0C8
:10056000081B0094CDE901043246694604A8FFF750
:10057000BBFF06B070BD0000E90C0008070D0008C5
:10058000A70900080029A8BF7047401C490008BF00
:1005900020F00100704710B4B0FA80FC00FA0CF0B3
:1005A00050EA010404BF10BC704749B1CCF12004EB
:1005B00021FA04F411FA0CF118BF01212143084378
:1005C000A3EB0C01CB1D4FEA00614FEA102042BFA4
:1005D000002010BC704700EBC35010440029A4BF9A
:1005E00010BC7047401C490008BF20F0010010BC3F
:1005F000704710B5141E73F1000408DA401C41F175
:10060000000192185B411A4301D120F0010010BD96
:100610002DE9F04D92469B4611B1B1FA81F202E00C
:10062000B0FA80F22032904600F09CF904460F4662
:1006300040EA0A0041EA0B0153465A46084313D0E8
:10064000114653EA010019D0C8F140025046FFF7A5
:1006500069FD05460E4650465946424600F082F96D
:10066000084305D0012004E020463946BDE8F08D5E
:100670000020054346EAE0762C4337430A98630599
:10068000E40AA0EB08000022FD0A44EA47540A30BD
:1006900002D500200146E9E7010510196941DDE9AD
:1006A000084500196941BDE8F04DA2E72DE9FE4F6C
:1006B000804681EA0300C00F0C46009021F0004103
:1006C00023F00045B8EB0200A94105D2404621467F
:1006D00090461C460B46024623F00040104347D08C
:1006E000270DC7F30A00C3F30A510290401A019084
:1006F00040286BDAC3F3130040F4801B0098924645
:1007000020B10023D2EB030A63EB0B0B019859468F
:10071000C0F14002504600F025F906460D4650460D
:100720005946019A00F02DF910EB080061410024B0
:1007300087EA115284EAE7731A4340D0009A62B301
:10074000019A012A4FEA075215DC001B61EB0201F6
:100750004FF0004202EA0752CDE90042001C41F589
:10076000801132462B46FFF753FF03B0BDE8F08FF0
:1007700040462146F9E7001B61EB0201001C41F5F0
:10078000801300185B412018A2F5001747EB030106
:1007900040EAD570B6196D4111E06D084FEA360692
:1007A00045EAC0754FEA0752001B61EB0201001CCD
:1007B00041F5801149084FEA300000195141324695
:1007C0002B4603B0BDE8F04FFFF713BF009801229E
:1007D00040000023D0EB020263EBE0730098214657
:1007E0004FEAE074B8EB000061EB0401E9E783F045
:1007F00000435BE781F0004158E72DE9FE4F81EAB5
:10080000030404F0004421F0004100944FF0000B79
:1008100023F0004350EA01045ED052EA03045BD0A7
:10082000C3F30A54C1F30A552C44A4F2F3340194DF
:10083000A0FB0254C1F3130141F48011C3F313036D
:1008400043F4801301FB024400FB034E840A970A21
:1008500044EA815447EA8357A4FB076802958D0A4E
:1008600005FB07854FEA932C04FB0C542705029DDA
:100870004FEA065847EA1637B5EB08056EEB070C4A
:10088000870E920E47EA811742EA8312A7FB020104
:10089000B6EB0B0164EB00042B0D43EA0C335E183E
:1008A00044EB1C50DA465146E7FB0201C5F3130442
:1008B0004FEA0B3343EA14534FEA0432019C43EAF4
:1008C0000603A4F10C040294009CCDE900B4FFF7E8
:1008D0009FFE03B0BDE8F08F00200146F9E7C1F3A9
:1008E0000A52C1F3130140F2FF3341F480119A42DE
:1008F00002DA00200146704740F233439A42A2F2E6
:10090000334202DC5242FFF70DBC00F02BB800006E
:1009100030B5041E71F1000404DB4FF00044404286
:1009200064EB0101141E73F1000405DB1C464FF05B
:100930000043524263EB0403994208BF904230BD2A
:10094000064C074D06E0E06840F0010394E807001C
:1009500098471034AC42F6D3FFF7CCFBC0460008F2
:10096000E0460008202A04DB203A00FA02F10020C9
:1009700070479140C2F1200320FA03F319439040DD
:100980007047202A06DBCB17203A41FA02F043EAEF
:10099000E07306E041FA02F3D040C2F12002914038
:1009A000084319467047C0B24FF4F05100F0BCB98B
:1009B0002DE9FF4F087881B09946FF2805D0491CE2
:1009C0002D2804D00024002308E000230BE001249C
:1009D000F9E703EB830300EB4303491C0878FF2886
:1009E000F7D104B15B4200200090147801462D2C11
:1009F00001D02B2C04D1521C2D2C12D00024009499
:100A000000251678FF2E0ED00A24A0FB04C801FB97
:100A10000481002700FB0711521C16EB0C006941F2
:100A2000EFE70124EBE7994450EA01020ED00024DD
:100A3000AA4D2646DFF8A88200F08AF982468B4646
:100A4000B9F1000009DAC9F100071BE001980021A3
:100A5000C0E9001105B0BDE8F08F074612E0F807C5
:100A600007D022462B4630464146FFF7C6FE0646D3
:100A7000884622462B4610461946FFF7BEFE04461E
:100A80000D467F10002FEAD1B9F1000F32464346E0
:100A90005046594602DAFFF70FFC01E0FFF7ADFEC2
:100AA000009A0AB181F00041019AC2E90001D1E740
:100AB0002DE9FF4F1F468DB0D7E901464FF0FF38B3
:100AC0002E2045464FF000090B90B9696D1C0E9819
:100AD0008847396A824688470028F6D1BAF1FF3F35
:100AE0000AD024F4D064002E11DDBAF12B0F08D007
:100AF000BAF12D0F0BD102E0404611B0ABE744F440
:100B00008064B9696D1C0E9888478246761E6946D6
:100B1000600501D52D2000E02B208DF8000001F1AB
:100B2000010B0DF1200809E0B9696D1C0E9888478A
:100B300082460F9844F40074761E0560002E02DD94
:100B4000BAF1300FF0D00B998A453ED144F08004C1
:100B500006E00F99681CA9F1010944F400740860CB
:100B6000B9696D1C761E0E98884782463028F0D0F1
:100B70002BE00B998A4505D1200603D444F080046C
:100B8000761E18E0504603F0D5F808B30DF11301B6
:100B9000761E44F400748B4508D2AAF130000BF89D
:100BA000010B200607D5A9F1010003E0200602D4BD
:100BB00009F101008146A00502D50F99681C086063
:100BC000B9696D1C0E9888478246002ED1DC53E02F
:100BD000002E51DDBAF1650F02D0BAF1450F4BD1AD
:100BE000A00549D5B9696D1C24F44074761E0E9891
:100BF00088478246002E0CDD2B2804D0BAF12D0F39
:100C000007D144F48074B9696D1C0E9888478246F8
:100C1000761EE00501D52D2100E02B2108F8011BEF
:100C2000CDF82C8021E00DF12901761E44F40074EA
:100C300088450CD2AAF1300010F0FF0088F80000BF
:100C400002D10B99884509D908F1010806E0E005B1
:100C500001D5244801E042F20F708146B9696D1C4C
:100C60000E98884782460F980560002E04DD504696
:100C700003F060F80028D6D1F9690E988847FF2064
:100C80008BF8000088F800000020069007904B4683
:100C90006A4608A906A8FFF78BFEA00502D46FF0EC
:100CA00001002AE714F0240F0AD0E00714D1DDE98F
:100CB00006123868031D3B600068C0E900120BE0B3
:100CC000DDE90601FFF798FB0146E00704D138682B
:100CD000021D3A600068016028460EE700002440CB
:100CE0000000F03FF1D8FFFF426842B1016811F8FF
:100CF000013B23B1521EC0E9001218467047012182
:100D0000C160881E704742685AB1C368016843B920
:100D100083688B4205D0491E521CC0E90012002096
:100D200070474FF0FF3070477F2801D9002208E05C
:100D3000064A02EB5002C007127800D1120902F0F5
:100D40000F020120904008407047000080460008D4
:100D50000EB540F2334202920022CDE90022134642
:100D6000FFF756FC03B000BDFEE70000014800F0AD
:100D7000F1B80000A4070020014800F0EBB8000023
:100D8000E807002030B590F840500124AC40C56B16
:100D90006C60046863604368102B036803D099603B
:100DA0000068C26030BD9A600068C16030BD00005C
:100DB000007830280CD10748016A491C01EBD17238
:100DC00022F001020162891A816000214161C16043
:100DD000704700000000002010B5114C0178606AD7
:100DE000552901D0A0B100E048B101280FD10C492C
:100DF0000B22BDE81040491C0A4801F027BE0849F3
:100E00000B22491C074801F021FE0120606210BD41
:100E100003490122BDE81040491C024801F02BBEE5
:100E2000000000201C0700207047000010B50E4C89
:100E3000A16959B9E169491CE16181420DDA4FF4B8
:100E400000510A4800F09DFA02F018F9A069012843
:100E500008D1BDE8104002F0ADBA0120A061002029
:100E6000E061F6E710BD0000000000200010014026
:100E700072B6FEE710B590F821100022022905D0C5
:100E80000421816380F82020012010BD01680B68D7
:100E900023F00E030B6001680B6823F001030B6065
:100EA00090F84030C46B012101FA03F3636080F8CD
:100EB000211080F82020104610BD000010B590F8D9
:100EC00021100024022903D00421816301243DE084
:100ED00001680A6822F00E020A6001680A6822F0BE
:100EE00001020A601A4A0168914201D1012121E000
:100EF000174A1432914201D110211BE0144A2832C2
:100F0000914201D1891515E0114A3C32914201D13B
:100F100089140FE00E4A5032914202D14FF48031D1
:100F200008E00B4A6432914202D14FF4801101E093
:100F30004FF08071064A083A5160012180F8211073
:100F4000002180F82010416B01B18847204610BD78
:100F5000080002402DE9F05FC16B0C6801680B6866
:100F6000D0F840C0042202FA0CF2494DDFF824A167
:100F7000494E4A4FDFF828B1DFF828E122422CD051
:100F80005A072AD50A68920603D40A6822F0040296
:100F90000A600168A94201D1042219E0514501D13A
:100FA000402215E0B14202D14FF4806210E0B94214
:100FB00002D14FF480420BE0594502D14FF4802218
:100FC00006E0714502D14FF4800201E04FF08062EB
:100FD0002F4908394A60C16A3BE04FF0020808FA1D
:100FE0000CF818EA040F4FF000094FF0010235D059
:100FF0005FEA837832D50B689B0605D40B6823F033
:101000000A030B6080F821200168A94201D1022265
:1010100019E0514501D1202215E0B14202D14FF42F
:10102000007210E0B94202D14FF400520BE0594572
:1010300002D14FF4003206E0714502D14FF40012A4
:1010400001E04FF00072124908394A6080F82090A0
:10105000816A00291AD0BDE8F05F0847082505FA23
:101060000CF5254212D01B0710D50B6823F00E0398
:101070000B6090F84010C36B02FA01F15960826373
:1010800080F8212080F82090016BE2E7BDE8F09F16
:10109000080002401C0002403000024044000240B0
:1010A000580002406C00024030B528B308C813490C
:1010B00014221944B1FBF2F18900C1631049816324
:1010C000022141771A6843F6F0718A43D0E900148F
:1010D0002143D0E902452C4321430469214344695B
:1010E0002143846921431143196000214163012296
:1010F00042770177084630BD012030BDF8FFFDBFC3
:101100000000024070B5044690F820000025012838
:101110000CD0012084F8200094F821600020012EDA
:1011200006D084F820000225284670BD022070BD3C
:10113000022684F82160A0632068066826F0010674
:1011400006602046FFF71EFEE06A0028206801685E
:1011500002D041F00E0106E021F004010160206898
:10116000016841F00A0101602068016841F0010155
:101170000160D9E770B5044600F010F90546601C1F
:1011800002D004480078044400F008F9401BA04253
:10119000FAD370BD4C0000202DE9F84FDFF8B8916C
:1011A000002409F1040A0AF1040B23460F270BF16E
:1011B000040EC9E00125A5402A40AA427DD1674E10
:1011C000D1F804C0ACEB0608B44532D014DCBCF155
:1011D000030F3AD009DCBCF1000F2AD0BCF1010F9B
:1011E0001CD0BCF1020F31D11DE0BCF1110F17D0A2
:1011F000BCF1120F2AD119E0B8F5881F19D006DC0E
:10120000B8F5803F15D0B8F5801F1FD111E0B8F5B3
:10121000001F0ED0B8F5041F18D10AE0CB6815E006
:10122000CB681B1D12E0CB6808330FE0CB680C3392
:101230000CE08B682BB1012B4FF0080303D0456104
:1012400004E0042302E0056100E00023FF2A01D846
:10125000064601E000F104064FEA840501D9A5F134
:101260002005D6F8008007FA05FC28EA0C0803FAE6
:1012700005F548EA0508C6F800804D68ED0062D51E
:10128000374DAE6946F00106AE61AD6924F0030644
:1012900005F001050095334D06EB050CDCF8085010
:1012A000A607360F07FA06F825EA0805DFF8B88022
:1012B000404503D14FF0000817E044E0DFF8AC8070
:1012C000404502D14FF001080FE0DFF8A48040450F
:1012D00002D14FF0020808E0DFF89880404502D1C3
:1012E0004FF0030801E04FF0040808FA06F848EA56
:1012F0000508CCF808804D68D9F80060ED034D462C
:1013000001D5164300E096432E604D68DAF8006080
:10131000AD03554601D5164300E096432E604D6857
:10132000DBF80060ED025D4601D5164300E0964310
:101330002E604D68DEF80060AD02754601D516439B
:1013400000E096432E60641C0D682A46E5407FF459
:1013500031AFBDE8F88F000000040140000011101B
:10136000001002400000014000080140000C014054
:1013700000100140001401408068084000D00120A6
:101380007047C26821EA02030A4043EA0241016150
:1013900070470AB1016170470904FBE701488068A2
:1013A000704700004C000020024881680278114418
:1013B000816070474C000020074810B5016841F07B
:1013C00010010160032000F075F80F2000F006F80E
:1013D00000F024F8002010BD0020024070B50D4D33
:1013E00004464FF47A712878B1FBF0F00A49096895
:1013F000B1FBF0F000F0ECFA48B9102C07D2002253
:101400002146501E00F036F800206C6070BD0120AF
:1014100070BD00004C000020580000200C4808B5AA
:10142000816941F001018161816901F0010100914F
:10143000C16941F08051C161C06900F080500090E5
:101440000448416821F0E06141F00071416008BD4D
:101450000010024000000140002809DB00F01F02DC
:10146000012191404009800000F1E020C0F8001106
:1014700070470000F0B40E4B1B680C46C3F3022308
:10148000C3F10705042D00D90425191D072901D230
:10149000002300E0DB1E012606FA05F1491E21406B
:1014A00099409E40761E16403143F0BC02F064BB6A
:1014B0000CED00E0064900F0070208684FF6FF0354
:1014C000184040EA0220034A1043086070470000B9
:1014D0000CED00E00000FA052DE9F0470F4605008D
:1014E00061D0434E306800F00700B84209D230683E
:1014F00020F0070038433060306800F00700B84241
:1015000051D128683B4C810712D5400703D560684C
:1015100040F4E06060602878000703D5606840F41C
:10152000605060606068A96820F0F0000843606067
:101530002878C00728D06868012810D021680228C0
:1015400010D0890700292EDA616821F003010143D8
:101550006160FFF723FF804641F288390DE0216882
:101560008903EFE78901EDE7FFF718FFA0EB08011A
:10157000494502D90320BDE8F0876068696800F03A
:101580000C00B0EB810FEFD1306800F00700B842DB
:101590000BD9306820F0070038433060306800F025
:1015A0000700B84201D00120E5E72878400705D5BB
:1015B0006068E96820F4E06008436060287800070C
:1015C00006D56068296920F4605040EAC100606077
:1015D00000F038F86168084AC1F30311515CC84053
:1015E0000649086006480068FFF7F8FE0020C2E7D9
:1015F0000020024000100240684600085800002009
:10160000500000200448054900684968044AC1F3B5
:101610000221515CC8407047580000200010024071
:10162000784600080448054900684968044AC1F33F
:10163000C221515CC8407047580000200010024091
:101640007846000812A185B00FC98DE80F0014A0DC
:10165000144A006804905168134801F00C03042BED
:1016600010D0082B0ED1C1F38343C9031DF803002A
:101670000AD5516804AAC1F34041515C0A4A50435B
:10168000B0FBF1F005B0704708494843FAE70000A5
:1016900002030405060708090A0B0C0D0E0F1010B3
:1016A000010200000010024000127A0000093D0013
:1016B0002DE9F84F040070D02078C04DC00749D004
:1016C0006868C0F38100012807D06868C0F3810012
:1016D000022809D16868C00306D52868800339D577
:1016E00060680028E7D035E06068B0F5803F0BD037
:1016F00010B1B0F5A02F11D0286820F480302860F8
:10170000286820F4802002E0286840F480302860B7
:10171000606890B1FFF742FE06460AE0286840F490
:1017200080202860F0E700BFFFF738FE801B6428A8
:1017300073D828688003F7D50CE0FFF72FFE064624
:1017400005E000BFFFF72AFE801B6428F0D8286858
:101750008003F7D420789A4E80074FF001094FF0AC
:10176000000839D5686810F00C0F07D06868C0F31E
:101770008100022809D16868C00306D42868800760
:1017800014D52069012808D110E02069B0B1C6F84D
:101790000090FFF703FE074605E00AE1FFF7FEFDB4
:1017A000C01B0228C4D828688007F7D5286861695B
:1017B00020F0F80040EAC10028600DE0C6F8008083
:1017C000FFF7ECFD074604E0FFF7E8FDC01B022829
:1017D00023D828688007F7D4207800072CD57948CB
:1017E000A169D9B1C0F80090FFF7D8FD074604E021
:1017F000FFF7D4FDC01B02280FD8686A8007F7D511
:1018000071484FF4FA510068B0FBF1F0009000BF4E
:101810000098411E0091FAD20EE080E0C0F80080EE
:10182000FFF7BCFD074604E0FFF7B8FDC01B022828
:1018300075D8686A8007F7D42078400760D5E869D2
:101840000027C00008D4E86940F08050E861E869EA
:10185000012700F0805000905C480168C90513D44E
:101860000168834641F480710160FFF797FD82466D
:1018700006E000BFFFF792FDA0EB0A0064284ED8F7
:10188000DBF80000C005F5D5E06801280AD008B1F2
:10189000052813D0286A20F001002862286A20F069
:1018A000040002E0286A40F001002862E06841F28A
:1018B000883B98B1FFF772FD82460BE0286A40F042
:1018C00004002862EEE700BFFFF768FDA0EB0A0105
:1018D00059455AD8286A8007F6D50CE0FFF75EFD17
:1018E000824605E0FFF75AFDA0EB0A0159454CD8A6
:1018F000286A8007F6D41FB1E86920F08050E861BB
:10190000E06988B36968C1F38101022944D00228E3
:10191000C6F8608004D0FFF741FD044638E034E0AB
:10192000FFF73CFD074604E0FFF738FDC01B022827
:101930002BD828688001F7D4206AB0F5803F05D104
:101940006868A16820F4003008436860D4E90801A1
:101950000843696821F4741108436860C6F8609010
:10196000FFF71CFD044606E025E000BFFFF716FD6B
:10197000001B022809D828688001F7D51BE000BFAA
:10198000FFF70CFD001B022802D90320BDE8F88FE9
:1019900028688001F4D40EE00128F7D06868226A34
:1019A00000F48031914204D1616A00F470108842E1
:1019B00001D00120EAE70020E8E700000010024023
:1019C0000000424280044242580000200070004063
:1019D00010B5401EB0F1807F01D3012010BD4FF043
:1019E000E02460610F21601702F0C6F80020A061BA
:1019F00007202061002010BD7047704770B590F837
:101A00003C20012A26D0012480F83C40022280F8A4
:101A10003D2003685A689D6822F070060A683243C8
:101A20005A600D4B02689A4208D0B2F1804F05D03F
:101A30000A4B9A4202D00A4B9A4204D1496825F0D7
:101A400080031943916080F83D40002180F83C10EC
:101A5000084670BD022070BD002C0140000400400B
:101A60000008004010B5040003D094F83D0010B108
:101A700007E0012010BD002084F83C00204600F063
:101A80001FF8022084F83D00211D206801F0E2FCCF
:101A9000012084F8460084F83E0084F83F0084F872
:101AA000400084F8410084F8420084F8430084F840
:101AB000440084F8450084F83D00002010BD00007B
:101AC00008B501681948B1F1804F11D0184A914208
:101AD00017D1C16941F00201C161C069002200F063
:101AE0000200009011461D20FFF7C4FC1D2019E0E4
:101AF000C16941F00101C161C06900F001000090BD
:101B000008BD0C4A9142FBD1C16941F00401C16199
:101B1000C069002200F00400009011461E20FFF76B
:101B2000A9FC1E20BDE80840FFF796BC001002404B
:101B3000000400400008004090F83D10012901D049
:101B400001207047022180F83D100168CA6842F008
:101B50000102CA6000680B49884208D0B0F1804F8A
:101B600005D00949884202D00849884204D18168D9
:101B700001F00701062903D0016841F0010101606D
:101B800000207047002C0140000400400008004085
:101B900070B5044690F83C00012817D0012584F860
:101BA0003C50022084F83D002068826822F07702D1
:101BB00022F47F4282600868502830D00DDC202853
:101BC0004DD005DC98B310283BD148E0022070BD11
:101BD000302844D0402834D139E0602828D07028FB
:101BE00006D0B0F5805F2CD0B0F5005F29D10AE0B7
:101BF000CB68D1E90121206801F06FFC2068816881
:101C000041F0770109E0CB68D1E90121206801F0BA
:101C100064FC2068816841F48041816011E0CA68F9
:101C20004968206801F00EFD5021206807E016E0A9
:101C3000CA684968206801F043FD6021206801F00E
:101C400056FC84F83D50002084F83C0070BDCA6802
:101C50004968206801F0F6FC40212068EFE722681F
:101C600001461046EBE700002DE9F05FDFF8248124
:101C7000DFF824A1DFF824B1494C06464FF40009EF
:101C800040453CD1307F042839D10821304600F04E
:101C900083FCFEF780FBA4F11805074668602968FD
:101CA000FEF7C6FAA860484503DA5146FEF76EFA19
:101CB000A8604FF4804158462F60FFF75DFB002875
:101CC0003849A0690BD0FEF761FAA061A868FEF759
:101CD00080FB02460B464FF0663033490AE0FEF7C0
:101CE000A7FAA061A868FEF774FB02460B464FF006
:101CF00066302E49FEF7E0FAFEF77EFB206146458E
:101D00003CD1307F082839D10C21304600F044FC0A
:101D1000FEF741FB224D06460C3D68602968FEF740
:101D200087FAA860484503DA5146FEF72FFAA86003
:101D30004FF4004158462E60FFF71EFB002819495A
:101D4000E0690BD0FEF774FAE061A868FEF741FB8A
:101D500002460B464FF0663014490AE0FEF716FAC9
:101D6000E061A868FEF735FB02460B464FF066308F
:101D70000D49FEF7A1FAFEF73FFB6061D4E90601C9
:101D8000FEF704FA4FF0FF31FEF78AFA2062BDE851
:101D9000F09F0000B805002000FF7F47000C0140C5
:101DA00010050020B81E053F9AAA23419AAA23C114
:101DB0002DE9F041054690F83C000C46012836D04C
:101DC000012085F83C008AB3042A42D02868082AFA
:101DD00051D0D4E90023E168066A26F480560662F1
:101DE000C669076A26F4407646EA03234FF6FF7673
:101DF00006EA013123F4704319434FF4005627F4E7
:101E0000005306EA02321A43C16102622868C169BE
:101E100021F44061C1612868C169A26841EA0221D8
:101E2000C161002085F83C00BDE8F08101E002209E
:101E3000FAE7D4E90012E368286801F015FC286885
:101E4000816921F00C01816128688169A2681143D0
:101E50000FE0D4E90012E368286801F043FC286829
:101E6000816921F44061816128688169A26841EA41
:101E700002218161D5E7D4E90027267B016A21F49C
:101E800080710162C169036A21F00301394321F0C5
:101E9000F00731074FF4007647EA116123F400732D
:101EA00006EA02221A43C16102622868C16921F070
:101EB0000C01C1612868C169A2681143B0E710B57F
:101EC000040003D094F83D0010B107E0012010BDDC
:101ED000002084F83C00204600F01EF8022084F820
:101EE0003D00211D206801F0B5FA012084F846006C
:101EF00084F83E0084F83F0084F8400084F84100F4
:101F000084F8420084F8430084F8440084F84500D3
:101F100084F83D00002010BD00B585B0002100917F
:101F200001910291039100681349884221D113481D
:101F3000816941F400618161816901F4006104916A
:101F4000816941F0040181618069694600F0040003
:101F500004904FF470600090022002900848FFF750
:101F60001BF9002201211B20FFF784FA1B20FFF739
:101F700073FA05B000BD0000002C014000100240C3
:101F80000008014010B5044651B104290DD00829BC
:101F900010D094F8410094F84520012811D10EE0AA
:101FA00094F83E0094F84220F7E794F83F0094F844
:101FB0004320F2E794F8400094F84420EDE7012A2A
:101FC00001D0012010BD022051B1042911D00829EF
:101FD00018D084F8410084F845000C291BD136E064
:101FE00084F83E0084F842002068C26842F0020291
:101FF00010E084F83F0084F843002068C26842F093
:10200000040207E084F8400084F844002068C268B5
:1020100042F00802C2600122206801F051FA0E4924
:102020002068884208D0B0F1804F05D00B49884223
:1020300002D00B49884204D1816801F007010629CA
:1020400003D0016841F001010160002010BD20684B
:10205000C26842F01002DDE7002C0140000400409D
:102060000008004070B50446006801694FF00005A3
:10207000C943890715D4C168C943890711D4E91E2A
:10208000016101202077206880698007204602D006
:10209000FFF7EAFD04E000F0BFF8204600F04EF93B
:1020A000257720680169C943490717D4C168C94326
:1020B000490713D46FF004010161022020772068E2
:1020C000806910F4407F204602D0FFF7CDFD04E088
:1020D00000F0A2F8204600F031F925772068016968
:1020E000C943090716D4C168C943090712D46FF060
:1020F00008010161042020772068C069800720461C
:1021000002D0FFF7B1FD04E000F086F8204600F0B1
:1021100015F9257720680169C943C90617D4C16834
:10212000C943C90613D46FF010010161082020775C
:102130002068C06910F4407F204602D0FFF794FD6C
:1021400004E000F069F8204600F0F8F825772068F0
:102150000169C943C90708D1C168C943C90704D186
:10216000891E0161204600F039F920680169C943E0
:10217000090609D4C168C943090605D46FF0800176
:1021800001612046FFF738FC20680169C943490610
:1021900009D4C168C943490605D46FF04001016103
:1021A000204600F00EFA20680169C94389060BD465
:1021B000C168C943890607D46FF020010161204638
:1021C000BDE87040FFF719BC70BD000000B585B0D8
:1021D0000021009101910291039100680B4988420E
:1021E00012D10B48816941F008018161806969461B
:1021F00000F0080004904FF440700090022001901D
:1022000003900448FEF7C8FF05B000BD0008004079
:1022100000100240000C0140704770B5044690F871
:102220003C000D4601280AD0012084F83C0042B150
:10223000042A18D0082A2AD00C2A4DD139E00220CD
:1022400070BD206801F05CF92068816941F00801E7
:1022500081612068816921F00401816120688169C0
:102260002A69114311E0206801F072F92068816940
:1022700041F4006181612068816921F4806181619C
:10228000206881692A6941EA0221816124E020688D
:1022900001F08AF92068C16941F00801C161206834
:1022A000C16921F00401C1612068C1692A69114333
:1022B00011E0206801F0A4F92068C16941F40061CF
:1022C000C1612068C16921F48061C1612068C16970
:1022D0002A6941EA0221C161002084F83C0070BDF6
:1022E00010B5040003D094F83D0010B107E00120C0
:1022F00010BD002084F83C00204600F01EF80220AB
:1023000084F83D00211D206801F0A4F8012084F824
:10231000460084F83E0084F83F0084F8400084F8CA
:10232000410084F8420084F8430084F8440084F8B3
:10233000450084F83D00002010BD70477047000044
:1023400010B50446022249B104290ED0082913D041
:1023500094F84100012816D0012010BD94F83E00E9
:102360000128F9D184F83E200FE094F83F000128BD
:10237000F2D184F83F2008E094F840000128EBD126
:1023800084F8402001E084F841200122206801F017
:1023900097F80F492068884203D1426C42F400420A
:1023A00042642068884208D0B0F1804F05D00949C6
:1023B000884202D00849884204D1816801F00701AF
:1023C000062903D0016841F001010160002010BD21
:1023D000002C014000040040000800402DE9F047B7
:1023E000674C90B0E16B491CE163664988427DD13E
:1023F000A068DFF89481DFF89491DFF894A10125BB
:102400004FF07E56012806D0F0B302286ED1A06BA3
:10241000D8B3606B4AE06069A0BB20225D49684682
:10242000FDF790FE43463246494608A802F042F8BE
:10243000202208A95748FDF785FE56492022203161
:102440006846FDF77FFE00233246514608A802F099
:1024500031F85048202208A92030FDF773FE4D497D
:10246000202220396846FDF76DFE00231A463146CA
:1024700008A802F01FF84748202208A92038FDF7D5
:1024800061FE656110B001E004E00AE0BDE8F047DC
:1024900000F0F4BD10B04FF4FA60BDE8F047FEF76D
:1024A000C5BC00F0EBFD606B401C606340F28A210C
:1024B00088424FDB20690027E8B30021012001F0AA
:1024C0000BFB0021084601F007FBE06A41F288316E
:1024D000401CE06288423DDB20222E496846FDF721
:1024E00031FE43463246494608A800E032E001F09A
:1024F000E1FF202208A92748FDF724FE25492022D4
:1025000020316846FDF71EFE00233246514608A8DA
:1025100001F0D0FF1F48202208A92030FDF712FE4D
:102520001C49202220396846FDF70CFE00231A467C
:10253000314608A800E010E001F0BCFF1548202259
:1025400008A92038FDF7FEFD00F098FDE7626763FB
:10255000A763A56010B0BDE8F0876FF03B010120D4
:10256000A56301F0B9FA0021084601F0B5FA206B25
:10257000401C2063B0F5C87FECD127632561E9E7F3
:1025800000000020900600200AD7233C00002841CC
:1025900000003041780500200246002041B10429A6
:1025A00009D008290AD00C2901D11068006C7047A5
:1025B0001068406B70471068806B70471068C06B84
:1025C000704770477047704710B504460068C1688F
:1025D00021F49071C1602068416921F001014161DD
:1025E000206B012804D12068C16821F01001C1606E
:1025F000216848694FF0200243064FF000000FD5D4
:102600004B6923F040034B61A16B49B10948486312
:10261000A06BFEF753FC50B1A06B416B884706E0FE
:10262000E08584F83E2020632046FFF7CCFF0020A1
:1026300010BD0000E937000870470000F8B50268D7
:1026400004461068D168536910F00F0F4FF0000571
:1026500054D003F0010601F4907737435FD0C207EE
:1026600005D0CA0503D5226C42F00102226442075C
:1026700005D5DA0703D0226C42F0020222648207F9
:1026800005D5DA0703D0226C42F004022264020767
:1026900007D501F02002324303D0226C42F0080239
:1026A0002264226C002A35D0800604D5880602D523
:1026B000204601F0C5F820684069216CC0F3801005
:1026C00001F008010143204625D001F098F8206868
:1026D000416949061BD5416921F040014161A06B68
:1026E000A8B158494163A06BFEF7E8FB002811D060
:1026F000A06B416B01B0BDE8F040084783060ED5E2
:102700008B060CD52046BDE8F84001F099B820466C
:10271000FFF792FFF8BDFFF78FFF2564F8BD266B2A
:102720002023012E52D1C60650D5CE064ED51068B4
:1027300050680090506940062AD5A16B086840682F
:102740000004000CEAD0A68D8642E7D9E0858869AE
:10275000202818D0D06820F48070D06020684169AB
:1027600021F0010141612068416921F0400141618E
:1027700084F83E3025632068C16821F01001C160F3
:10278000A06BFEF777FBA08DE18D401A81B219E0B6
:10279000A08DE18D401A81B2E08D0028BED00029C5
:1027A000BCD0D06820F49070D0602068426922F0DC
:1027B0000102426184F83E3025632068C26822F03D
:1027C0001002C2602046FFF7FDFEF8BD05062BD5BE
:1027D0000D0629D594F83D002128F6D1A068B0F562
:1027E000805F01D12069B0B1206A411C216221685B
:1027F00000784860E08C401E0004000CE084E4D1C6
:102800002068C16821F08001C1602068C16841F082
:102810004001C160F8BD206A0088C0F30800506024
:10282000206A801C2062E5E74006F3D54806F1D512
:10283000D168204621F04001D16084F83D3000F09D
:10284000EAF9F8BD1B37000870B5040004D094F80D
:102850003D00002510B106E0012070BD84F83C5019
:10286000204600F023F8242084F83D002068C16849
:1028700021F40051C160204601F03EF82068016952
:1028800021F4904101612068416921F02A014161F0
:102890002068C16841F40051C1602564202084F89B
:1028A0003D0084F83E00002070BD00002DE9F0419D
:1028B00086B0002400940194029403940646DFF845
:1028C00068C10368594802210322594D8027634596
:1028D0002CD1836943F480438361836903F480438B
:1028E0000493836943F0080383618069039200F0D5
:1028F000080004904020CDE9000169462846FEF713
:102900004BFCCDE90074694628460294FEF744FC6E
:102910004848416841F0E06141F004014160002213
:1029200011462520FEF7A6FD252079E0DFF808C135
:1029300063454CD1C36943F40033C361C36903F4F5
:1029400000330493836943F00403836180693B4D42
:1029500000F0040004900420CDE9000103926946D0
:102960002846FEF719FC0820CDE9000469462846F0
:102970000294FEF711FC334D31484FF02008C5E9B1
:102980000004C5E902472C61C5E905482846EC6109
:10299000FEF78AFB08B1FEF76BFAB5636E62294D4C
:1029A00027484435143001C5102091C5254845F805
:1029B00010494430C5E90548EC61FEF775FB08B1E4
:1029C000FEF756FA75636E6206B0BDE8F0811E4EE2
:1029D000B342F9D1C36943F48023C361C36903F4EB
:1029E00080230493836943F0080383618069039221
:1029F00000F0080004903015CDE900016946284632
:102A0000FEF7CAFBF014CDE900046946284602949B
:102A1000FEF7C2FB002211462720FEF72BFD2720E0
:102A2000FEF71AFDD0E70000003801400010024018
:102A3000000C01400000014000440040000801403B
:102A40006C000240A40700200048004090F83E308F
:102A5000202B0ED159B152B190F83C30012B08D047
:102A6000012380F83C300023036300F0A1BF012064
:102A700070470220704790F83E30202B0ED159B19C
:102A800052B190F83C30012B08D0012380F83C3043
:102A90000023036300F0C4BF012070470220704789
:102AA00070B50446284884420AD12848FEF780F9C8
:102AB0002548FFF789FD012224492348FFF7DBFF62
:102AC000234884420CD12148401CFEF785F9204858
:102AD000FFF77AFD1D490122491C1D48FFF7CBFF76
:102AE0001C4884422ED119480025801C1A4E0078BB
:102AF000164C0A2810D061281BD0A16A7054491CBA
:102B0000A1621448FFF760FDBDE870400F49012243
:102B1000891C1048FFF7AFBFA06A35540E4801F07A
:102B2000A8FCFDF769FC0C492C314860A5623570A2
:102B3000E7E7A5600120E560410360600748FEF714
:102B400020FCDEE770BD0000D80600200000002059
:102B50001C07002060070020E40400200010014052
:102B6000704700002DE9F843044690F83D001F46E9
:102B700016460D4620284CD1C5B1BEB194F83C0094
:102B8000012846D0012084F83C004FF00008C4F82A
:102B90004080212084F83D00FEF700FCA684814699
:102BA000E684A068B0F5805F03D004E00120BDE8B2
:102BB000F883206928B12E465FF0000584F83C8038
:102BC0000EE00026FAE78021204600F044FFA0B97D
:102BD000AEB116F8010B21684860E08C401EE0841D
:102BE000E08C4B464FF0000200970028EBD14FF0ED
:102BF0004001204600F02FFF30B10320D7E735F821
:102C0000020BC0F30800E6E7202084F83D00002016
:102C1000CDE70220CBE77047FEE7000010B50B4C74
:102C2000012210212046FEF7B4FB0122202120467C
:102C3000FEF7AFFB002210212046FEF7AAFB20463C
:102C40000022BDE810402021FEF7A3BB0008014090
:102C500010B5094C012220212046FEF79AFB0022E4
:102C600010212046FEF795FB20460122BDE81040CA
:102C70001021FEF78EBB00000008014010B5064C85
:102C8000012220212046FEF784FB20460022BDE8D9
:102C900010402021FEF77DBB000801400D4808B51B
:102CA000416941F0010141614069002200F00100E9
:102CB000009011461020FEF7DDFB1020FEF7CCFB44
:102CC000002211461120FEF7D5FBBDE80840112077
:102CD000FEF7C2BB001002402DE9F04786B0002489
:102CE00031480094019402940394816941F01001E9
:102CF0008161816901F010010491816941F0200135
:102D00008161816901F020010491816941F0040130
:102D10008161816901F004010491816941F0080138
:102D200081618069DFF8848000F008004FF400556D
:102D30000490002229464046FEF72BFBDFF87090F6
:102D4000AF00002239464846FEF723FBDFF864A0B7
:102D5000002208215046FEF71CFB0126CDE9005653
:102D6000022569464046CDE90245FEF715FA4FF4C3
:102D700070408DE8310069465046FEF70DFACDE906
:102D8000007669464846CDE90245FEF705FA082077
:102D9000CDE9000669465046CDE90245FEF7FCF94B
:102DA00006B0BDE8F08700000010024000100140AE
:102DB00000080140000C014010B586B000242548F1
:102DC00005940494009401940294214903940160B1
:102DD0004721C0E901144FF6FF71C0E903144461B3
:102DE0008461FFF76CF808B1FEF742F8049404A977
:102DF00018480594FEF702FE08B1FEF739F80120E5
:102E0000CDE9004002940022694612480394FEF77F
:102E1000CFFF08B1FEF72CF8042269460D48FEF7F3
:102E2000C7FF08B1FEF724F8082269460948FEF7F3
:102E3000BFFF08B1FEF71CF80C2269460548FEF7F3
:102E4000B7FF002801D0FEF713F806B010BD000050
:102E5000002C0140B805002010B586B000241648AB
:102E6000009401940294039404944FF080410594DB
:102E7000C0E900144FF6FF71C0E9024104618461AA
:102E8000FEF7F0FD08B1FDF7F3FF4FF4805000901E
:102E900069460948FEF77CFE08B1FDF7E9FF049496
:102EA00004A905480594FEF7A9FD002801D0FDF707
:102EB000DFFF06B010BD00000006002010B586B090
:102EC0000024174800940194029403940494134935
:102ED000059401604721C0E901144FF47A71C0E9FB
:102EE000031480218161FEF7BDFD08B1FDF7C0FF2D
:102EF0004FF48050009069460948FEF749FE08B13A
:102F0000FDF7B6FF049404A905480594FEF776FD85
:102F1000002801D0FDF7ACFF06B010BD0004004052
:102F20004806002010B58EB0002407940894099438
:102F30000A940B941C2168460C94FDF71CF9234855
:102F4000214901604721C0E901144FF47A71C0E9B9
:102F5000031480218161FEF785FD08B1FDF788FF2C
:102F60004FF48050079007A91848FEF711FE08B1EA
:102F7000FDF77EFF1548FFF7B3F908B1FDF778FFBD
:102F80000B940BA911480C94FEF738FD08B1FDF71E
:102F90006FFF6020CDE900040294082269460B48C7
:102FA0000494FFF73AF908B1FDF762FF0C22694675
:102FB0000648FFF732F908B1FDF75AFF0348FFF75B
:102FC00005F90EB010BD000000080040900600207A
:102FD0000C4810B50A4901604FF4E131416000210D
:102FE00081600C22C160C0E904128161C161FFF7F8
:102FF0002BFC002803D0BDE81040FDF739BF10BD01
:1030000000380140D80600200C4810B50A4901607C
:103010004FF4E1314160002181600C22C160C0E9C0
:1030200004128161C161FFF70FFC002803D0BDE8E5
:103030001040FDF71DBF10BD004400401C070020DC
:103040000C4810B50A4901604FF4E131416000219C
:1030500081600C22C160C0E904128161C161FFF787
:10306000F3FB002803D0BDE81040FDF701BF10BD01
:103070000048004060070020FEE700002DE9F04115
:103080001E4D05F1240669687068FDF7D1F8014608
:103090001B4B1C4A05F1480000F02DF91A4CA064A6
:1030A00029693069FDF7C4F8184FDFF864800146DC
:1030B0003B46424605F1680000F01DF9206469694D
:1030C0007069FDF7B5F801463B46424605F18800B8
:1030D00000F011F96064206CFDF762F901460120EF
:1030E00000F0FAFC606CFDF75BF90146002000F08F
:1030F000F3FC0020A061BDE8F08100001005002075
:1031000000007AC300007A430000002000007AC467
:1031100000007A44FEE7000030B40021084B0A4664
:103120005FF0000003EBC004401CC0B26254802872
:10313000F8D3491CC9B20829F2D330BC00F09AB8C0
:103140006400002010B586B00020029047488169D5
:1031500041F0040181618069454C00F00400049055
:103160003020009001200190022003906946204603
:10317000FEF712F8012230212046FEF70AF9C82096
:10318000FDF7F8FF0021AE2000F09AF80021084674
:1031900000F096F80021102000F092F80021402065
:1031A00000F08EF80021812000F08AF80021CF2065
:1031B00000F086F80021A12000F082F80021C8204C
:1031C00000F07EF80021A62000F07AF80021A82067
:1031D00000F076F800213F2000F072F80021D320A3
:1031E00000F06EF80021084600F06AF80021D520B2
:1031F00000F066F80021802000F062F80021D9205C
:1032000000F05EF80021F12000F05AF80021DA20E9
:1032100000F056F80021122000F052F80021DB20C7
:1032200000F04EF80021402000F04AF80021202054
:1032300000F046F80021022000F042F800218D2025
:1032400000F03EF80021142000F03AF80021A420FC
:1032500000F036F80021A62000F032F80021AF205F
:1032600000F02EF8FFF758FF06B010BD0010024026
:103270000008014070B5114E002400BF04F1B000F9
:10328000C0B2002100F01CF80021084600F018F838
:103290000021102000F014F85FF0000506EBC500D7
:1032A0000121005D00F00CF86D1CEDB2802DF5D30E
:1032B000641CE4B2082CE1D370BD0000640000205F
:1032C00070B50C460546FFF7A9FC782000F04CF8D5
:1032D000FFF7D4FC0CB1402000E0002000F044F8DF
:1032E000FFF7CCFC284600F03FF8FFF7C7FCBDE82D
:1032F0007040FFF7ADBC2DE9F047044681619A4666
:1033000091460D460068FCF799FFE060E66980464B
:1033100031462069FCF73AFF6168FCF78FFF0746EA
:10332000206128463146FCF783FFA168FCF786FF41
:10333000E5610646606139464046FCF727FF3146A5
:10334000FCF724FF04464946FDF77CF800D24C46C2
:1033500051462046FDF76CF800D254462046BDE8A1
:10336000F08770477047000070B5114E0546002485
:10337000002220213046FEF70CF8280601D5012254
:1033800000E0002210213046FEF703F80122202140
:103390003046FDF7FEFF002220213046FDF7F9FF01
:1033A0006806641C050EE4B2082CE1D370BD000071
:1033B0000008014010B56FF01D01012000F08CFBEA
:1033C0000A21BDE81040002000F086BBFDF7ECBFED
:1033D00030B58FB028216846FCF7CDFE14210AA82D
:1033E000FCF7C9FE01210804CDE900100024029475
:1033F00002250491CDE907504FF4E010099068468A
:10340000FEF756F908B172B6FEE70F20CDE90A05BE
:103410004FF48060CDE90C4002210AA80E94FEF71B
:103420005BF8002801D072B6FEE70FB030BD7047E0
:103430000148FEF717BE0000B80500200148FEF75E
:1034400011BE0000480600200148FEF70BBE000038
:1034500090060020F0B50268164B174C174D4FF040
:103460008047984205D0B84203D0A04201D0A8427C
:1034700003D122F070064A683243984205D0B84220
:1034800003D0A04201D0A84203D122F44074CA68FC
:1034900022434C6922F08002224302608A68C262A1
:1034A0000A688262984201D1096901630121416180
:1034B000F0BD0000002C0140000400400008004066
:1034C00010B501F01F030121046A99408C43046286
:1034D000016A9A401143016210BD10B5846842EA46
:1034E000032224F47F440A432243826010BD826891
:1034F00022F070020A4342F0070181607047000029
:1035000030B5026A22F001020262026A43688469ED
:1035100024F073050C682C4322F002058A682A43C4
:103520000A4DA8420BD122F00805CA6823F4407363
:103530002A434D6922F004021D438B692B434360EB
:10354000846149684163026230BD0000002C014083
:1035500030B5026A22F010020262026A436884698E
:103560000D6824F4E64444EA05248D6822F0200224
:1035700042EA05120B4DA8420ED1CD6822F080021E
:1035800042EA05124D6923F4406343EA85038D69DD
:1035900022F0400243EA8503436084614968816305
:1035A000026230BD002C014030B5026A22F4807204
:1035B0000262036A4268C46923F4007324F073054D
:1035C0000C682C438D6843EA05230C4DA8420ED1AC
:1035D000CD6823F4006343EA05234D6922F4405289
:1035E00042EA05128D6923F4806342EA05124260C3
:1035F000C4614968C163036230BD0000002C014012
:1036000030B5026A22F480520262046A4268C369D9
:103610000D6823F4E64343EA05238D6824F400543F
:1036200044EA0534064DA84204D14D6922F4804293
:1036300042EA85124260C36149680164046230BD98
:10364000002C014010B5036A046A24F001040462EE
:10365000846924F0F00444EA021423F00A020A43C5
:103660008461026210BD000070B5046A24F0010498
:1036700004628469056A0F4EB04208D0B0F1804FF1
:1036800005D00D4EB04202D00C4EB04203D124F012
:103690000304144301E044F001041A0724F0F00489
:1036A00044EA126225F00A0301F00A01194382611B
:1036B000016270BD002C0140000400400008004081
:1036C00010B5036A23F0100303628369046A23F4CC
:1036D000704343EA023224F0A00343EA01118261FD
:1036E000016210BD30B5046A24F0100404628469DC
:1036F000056A24F4407444EA022222F470444FF62E
:10370000FF7202EA03322243A02425F0A00304EA58
:10371000011119438261016230BD10B5406A002178
:10372000C185C184FEF788FF10BD70B5446A20686A
:10373000406994F83D10C0F3C0100025212904D140
:1037400018B1E584204600F072F82068406994F8CA
:103750003E10C0F38010222904D118B1E58520461F
:1037600000F04DF8206C40F0100020642046FEF779
:1037700063FF70BD10B50146406A09680968890693
:103780001BD40021C1850168CA6822F48072CA6016
:1037900001684A6922F001024A6101684A6922F01F
:1037A00040024A61202180F83E10016B012904D1BA
:1037B0000168CA6822F01002CA60016B012902D0B8
:1037C000FFF76EF910BD818DFEF7FCFE10BD10B540
:1037D000406A016B012902D0FFF7C2F910BD818D4B
:1037E0004908FEF7EFFE10BD10B5406A0021C18503
:1037F000202280F83E200163FEF7E5FE10BD01683F
:10380000CA6822F49072CA6001684A6922F0010213
:103810004A61016B012904D10168CA6822F01002D3
:10382000CA60202180F83E100021016370470168C2
:10383000CA6822F0C002CA60202180F83D1070479B
:1038400008B590F83E10222901D0022008BD8268F8
:103850004FF480539A4201D1016921B1816A9A42A1
:103860001BD04AB10AE00268816A5268C2F30802BA
:103870000A80816A891C08E0026972B10268526894
:1038800002F07F020A70816A491C8162C18D491E63
:103890000904090CC18503D019E002685268F1E7F8
:1038A0000168CA6822F02002CA600168CA6822F46E
:1038B0008072CA6001684A6922F001024A612021CF
:1038C00080F83E10016B012903D0FFF7E9F80020D2
:1038D00008BD002101630168CA6822F01002CA60B5
:1038E00001680A68D20602D50A6849680091818D8C
:1038F000FEF768FEEBE7000070B50446006801695A
:10390000E26821F44051114301612169A068084334
:10391000616908432168CA6841F20C639A43024313
:10392000CA6020684169A26921F440711143416174
:103930001E492068884202D1FDF774FE01E0FDF7C0
:1039400061FE00EBC00101EB0012606864218000A1
:10395000B2FBF0F3B3FBF1F36FF018067343B2FB65
:10396000F0F5B2FBF0F605EB8305322303EB05150A
:10397000B5FBF1F5B6FBF1F605F0F00505EB061524
:10398000B2FBF0F6B2FBF0F0B0FBF1F06FF0180212
:10399000504306EB800003EB0010B0FBF1F0216810
:1039A00000F00F002844886070BD0000003801401E
:1039B00038B58162828500251346044605642220BD
:1039C00084F83E00A26B13489062A26B1248D0624A
:1039D000A26B12481063A06B0A4645632168A06B76
:1039E000091DFDF78FFB206801684168009184F88C
:1039F0003C50C16841F48071C1602068416941F068
:103A0000010141612068416941F0400141610020AC
:103A100038BD000075370008CF3700082B37000885
:103A200081628285C28500210164222280F83E20C5
:103A300080F83C100168CA6842F48072CA6001686C
:103A40004A6942F001024A610068C16841F0200100
:103A5000C160002070472DE9F041984617460E4698
:103A60000446069D1DE0681C1BD02DB1FDF796FC99
:103A7000A0EB0800A84214D92068C16821F4D071D5
:103A8000C1602068416921F001014161202084F872
:103A90003D0084F83E00002084F83C000320BDE88F
:103AA000F0812068006836EA000004D00020B842A7
:103AB000D9D00020F3E70120F9E700000148FEF724
:103AC000BDBD0000D80600200148FEF7B7BD0000CC
:103AD00060070020FEE7000030B44FF47A72914294
:103AE00001DD114606E0184A914201DA114603E071
:103AF000002901DB012300E00023144A126870B1A1
:103B000001281ED1124823B1002B1AD0D163002204
:103B100003E001F57A71D163012208210EE00D481E
:103B20004FF4004433B1002B0BD0C1F57A7111640E
:103B3000012202E0494211640022214630BCFDF717
:103B400028BC30BC7047000018FCFFFF9006002026
:103B5000000C0140000801400FB4054B10B503A94B
:103B6000044A029800F0EEF810BC5DF814FB000067
:103B70009D4400085C0000200907090E002804DBB2
:103B800000F1E02080F80014704700F00F0000F111
:103B9000E02080F8141D704701480068704700005D
:103BA0006000002002E008C8121F08C1002AFAD1F4
:103BB00070477047002001E001C1121F002AFBD1AD
:103BC0007047000001490860704700006000002055
:103BD0002DE9FF5FDDE90220010DDDF838B0024379
:103BE00018D044F61050A1F2FF3141430D140F9844
:103BF000012820D0A5EB0B00401C5FEA000A4FF023
:103C00000004474EDFF81C91A046504616D5CAF175
:103C1000000728E00F98012443A2012808D00021C2
:103C200000980F9BC0E90021C0E90243BDE8FF9F57
:103C30006FEA0B01F4E7CBF10000DEE7074612E084
:103C4000F80707D02246334640464946FCF7D5FDE3
:103C5000804689462246334610461946FCF7CDFD7C
:103C600004460E467F10002FEAD1DDE90201BAF1C9
:103C7000000F42464B4602DAFCF7BFFD01E0FCF7BD
:103C80001BFB04460E460022284BFCF741FE03D8DE
:103C90004FF0FF30014607E00022254B2046314619
:103CA000FCF704FDFCF71BFE102409E0002C0ADBE6
:103CB0000A220023FCF7E6FB019B30321A55641EF2
:103CC00050EA0102F2D1641C019AC4F111031444B8
:103CD0000F9A012A03D0012208430DD10AE00843BC
:103CE00004D000204FF0110B0F9080E7A3EB0B05E1
:103CF0006D1E0DE05B4504DD4FF0000205F101058E
:103D000004E003DA4FF00002A5F10105002AECD02F
:103D100000980F99C0E90231C0E9004586E700002C
:103D2000000024400000F03F300000000000F0439D
:103D30000000E03F30380A2801D2012070470020FF
:103D4000704700002DE9FF4F95B09B468946064617
:103D500000250FE2252877D100242746F84A0121C3
:103D6000059400E0044316F8013F203B01FA03F0FC
:103D70001042F7D130782A2811D06FF02F03307815
:103D8000A0F13002092A16D8059A44F0020402EB89
:103D9000820203EB42021044761C0590EFE759F8CB
:103DA000042B0592002A03DA504244F40054059093
:103DB00044F00204761C30782E2816D116F8010F34
:103DC00044F004042A280DD06FF02F023078A0F1BF
:103DD0003003092B09D807EB870302EB4303C7180D
:103DE000761CF3E759F8047B761C30786C280FD0EA
:103DF00006DC4C2817D068280DD06A2814D104E0BE
:103E0000742810D07A280FD10DE044F400140AE091
:103E100044F4801401E044F440147278824202D1E8
:103E200004F58014761C761C307866280BD013DCE1
:103E3000582877D009DC002875D04528F6D04628C8
:103E4000F4D047281AD19DE118E0632835D06428C2
:103E500079D0652812D195E1702873D008DC6728E5
:103E6000F1D069286FD06E280DD06F2806D1B5E04B
:103E700073282CD0752875D0782874D05A46179995
:103E800090476D1C75E1C4F30250022809D0032845
:103E90000DD0D9F8001004280DD00D6009F10409E7
:103EA00067E1D9F80010EA17C1E90052F6E7D9F83E
:103EB00000100D80F2E70D70F0E719F8041B8DF883
:103EC000001000208DF80100EA46012003E059F8B7
:103ED00004AB4FF0FF3061074FF0000102D40DE05A
:103EE00008F101018846B9420FDA8045F8DB1AF87B
:103EF00008100029F4D108E008F101018846814248
:103F0000FADB1AF808100029F6D105985B46A0EBF9
:103F1000080721463846179A00F094FA284400EB27
:103F2000080507E04DE029E10DE01AF8010B5A46BB
:103F300017999047B8F10108F7D25B4621463846F9
:103F4000179A13E142E00A220092C4F302524FF0A2
:103F5000000A022A08D059F804CB032A4FEAEC7170
:103F60000AD00DE029E02AE009F1070121F007025B
:103F7000F2E802C1914609E00FFA8CFC4FEAEC71BD
:103F8000042A03D14FFA8CFC4FEAEC71002907DABE
:103F90000A460021DCF1000C61EB02012D2202E057
:103FA000220504D52B228DF80420012203E0E2072C
:103FB00001D02022F7E7904659E00A2102E01022C2
:103FC0000DE010214FF0000A00910BE010224FF09D
:103FD000000A44F004040827009203E008224FF08E
:103FE000000A0092C4F30252022A05D059F804CB09
:103FF0000021032A08D009E009F1070121F0070296
:10400000F2E802C1914605E01FFA8CFC042A01D1B6
:104010000CF0FF0C4FF00008220728D5702806D0BE
:10402000009B83F0100353EA0A0305D00EE0402200
:104030008DF80420012208E05CEA010206D030225B
:104040008DF804208DF8050002229046009B83F035
:10405000080353EA0A030AD15CEA010201D16207AC
:1040600005D530228DF804204FF001087F1E582816
:1040700004D034A003900EA802900DE036A0F9E71A
:1040800053466046009AFCF7FDF984460398825C2B
:104090000298401E029002705CEA0100F0D1029882
:1040A00006A9081A00F1200A600702D524F480341A
:1040B00000E00127574502DDA7EB0A0000E00020E1
:1040C00000EB0A01009005984144401A0590E00376
:1040D00006D45B462146179A059800F0B3F90544CB
:1040E000002706E001A85A46C05D179990476D1C4D
:1040F0007F1C4745F6DBE0030CD55B462146179A4B
:10410000059800F09FF9054404E030205A461799BD
:1041100090476D1C0099481E00900029F5DC08E0CE
:10412000029802995A460078491C029117999047C3
:104130006D1CBAF10001AAF1010AF1DC65E1000091
:10414000092801003031323334353637383961626D
:104150006364656600000000303132333435363731
:1041600038394142434445460000000000F058F908
:104170000544761C307800287FF4ECAD19B0284651
:10418000BDE8F08F620700D4062709F1070222F08C
:10419000070CFCE80223E14603F000485FEA080C44
:1041A00002D00FF2702C0DE05FEA045C02D50FF232
:1041B000682C07E05FEAC47C02D00FF2602C01E0BB
:1041C000AFF2700C4FF0FF3823F00043CDF850C031
:1041D00065280CD006DC452809D046281DD0472884
:1041E0003DD13DE0662818D067287ED138E0002117
:1041F000112F01DB112000E0781CCDE9000106A998
:104200000EA8FFF7E5FCDDE90F010E9A03910021EE
:10421000009207F1010A04914DE04FF00040009731
:10422000CDE9011006A90EA8FFF7D2FCDDE90F02C7
:1042300003920E9B11990022DDF80CA000930492CA
:1042400011B9791C00EB010AB7EB0A0004D4C0F1E4
:10425000FF3007F1010A0490AAEB0700019044E047
:10426000012F00DA01270021112F01DD112000E0CC
:104270003846CDE9000106A90EA8FFF7A9FCDDE943
:104280000F010E9A0391002104910092BA46210772
:104290000CD40399514500DA8A46BAF1010F05DDC5
:1042A000009AAAF10101515C302908D0B84202DA23
:1042B00010F1040F06DA0121CDE9011015E0AAF191
:1042C0000101E9E7002805DC049901440491AAEB07
:1042D000000102E0411C514500DD8A460499401A64
:1042E000401C01904FF000400290200704D4019838
:1042F000504501DBCDF8048000208DF84F00029876
:104300000DF14F07B0F1004F25D02B200E900298F1
:104310004FF0020800280CDA404202902D200E9047
:1043200007E00A210298FCF797F83031029007F86D
:10433000011DB8F10001A8F10108F2DC0298002883
:10434000EFD1791E0E980870307800F0200040F010
:10435000450007F8020D12A8C01B00F107081498C9
:10436000007800B1012000EB0A01019801EBE07137
:1043700005984144401A401E0590E00306D45B4670
:104380002146179A059800F05DF8054414980078C6
:1043900018B15A46179990476D1CE00324D55B4627
:1043A0002146179A059800F04DF805441CE0049842
:1043B000002807DBDDE90301884203DD0098405C4B
:1043C000179901E0179930205A469047049805F153
:1043D0000105401C04900198401E019004D12E203C
:1043E0005A46179990476D1CBAF10001AAF1010ACB
:1043F000DDDC05E017F8010B5A46179990476D1C54
:10440000B8F10001A8F10108F4DC5B462146179AD7
:104410000598ABE62D0000002B00000020000000F6
:104420002DE9F041044600251E461746880404D4B1
:1044300005E039462020B0476D1C641EF9D528469A
:10444000BDE8F0812DE9F041044600251E46904666
:10445000C80301D5302700E02027880404D505E0F3
:1044600041463846B0476D1C641EF9D52846BDE864
:10447000F08130B583B00446FFF78EFB054600207F
:10448000CDE90000024621466846FCF748F8284678
:10449000FFF798FBDDE9000103B030BD13B50A2337
:1044A000012269460248FEF75DFB00981CBD000032
:1044B000D806002010B502AC84E80E00002105915A
:1044C0000691079109910891202202A9FBF73AFE73
:1044D00010BD000090B0202253496846FBF732FE21
:1044E0004FF07E54514B2246514908A8FFF7E2FF96
:1044F000202208A94C48FBF725FE4B4920222031F9
:104500006846FBF71FFE002322464A4908A8FFF72A
:10451000D1FF4548202208A92030FBF713FE42496D
:10452000202220396846FBF70DFE00231A4621465B
:1045300008A8FFF7BFFF3C48202208A92038FBF756
:1045400001FEFCF739FFFEF743FFFEF7C5FBFEF760
:10455000E9FCFEF731FCFEF73BFDFEF79FFBFEF7A3
:104560007BFCFEF751FDFEF76BFDFEF7A7FCFEF7A7
:10457000E9FD012251033048FCF70BFF01222F49CE
:104580002F48FEF778FA2D490122491C2D48FEF7E5
:1045900072FA2A490122891C2B48FEF76CFA08217D
:1045A0002A48FDF7CDFE0C212848FDF7C9FE082159
:1045B0002748FDF7E7FC0C212548FDF7E3FC2348DD
:1045C000FDF7BAFA2348FDF7B7FADFF85C90DFF899
:1045D0006CA0A9F144094FF0000BA9F12404C9F81B
:1045E00004B01D4EDAF848004D4631460746FBF749
:1045F000CDFD286139463046FBF71AFE68616068D8
:10460000FBF7E7FE074688466069FBF7E2FE0546D2
:104610000E462069FBF7DDFE8DE8E00102460B4601
:104620000EA0FFF799FADAE7780500200AD7233CB5
:10463000000028410000304100100140000000202F
:10464000D80600201C0700206007002090060020EC
:10465000B8050020480600200000C84325662C2528
:10466000662C252E32660A000000000000000000C3
:104670000102030406070809000000000102030408
:10468000DDDDDDDDDCBBBBDDDDDDDDDDDDDDDDDD9F
:1046900098888888888888887777777777888888DF
:1046A0008555555666666666666666666668888877
:1046B0008333333222222222222222222228888D70
:1046C000E04600080000002064000000A43B000851
:1046D0004447000864000020CC0B0000B43B0008F5
:1046E00000000000000000000100000001000000C8
:1046F00001000000010000000000000000000000B8
:1047000000000000000000000000000000000000A9
:104710000000000000000000000000000000000099
:104720000000000000000000000000000100000088
:1047300010000000000000000024F4000000000051
:044740000000000075
:04000005080000ED02
:00000001FF
